:020000040000FA
:0400000007EF00F016
:0A0008005F82ABED12F06AEF18F012
:0E200800026E848284900250D0EC19F0120017
:10210000000102030405060708092A002B202020ED
:102110002A2A4672617365206573636F6E64696411
:1021200061203A2D29202A2A002041475541205973
:10213000204A41424F4E2020002323204341524752
:10214000414E444F20232300232346494E414C490E
:102150005A41444F232300232343414C454E5441CD
:102160004E444F23230044455341474F54414E446E
:102170004F2E2E2E005065736F2073656E73616451
:102180006F3A004D4F544F5220484F524152494FE1
:1021900000486F6C6120416C756D6E6F7300232376
:1021A000204C415641444F202323004C4156414E80
:1021B000444F2E2E2E004D4F544F5220414E544925
:1021C0000046494E414C495A41444F002043415238
:1021D0004741444F53002020202020202000424F20
:1021E00054312000424F543100424F543200424F8C
:1021F000543300424F5434004B6700007FD1C7EC8A
:1022000015F0020AD8A413D0010E0001B86F000E19
:10221000B96F000EBA6F000EBB6F898A010E3CECDD
:1022200019F0570E036E210E046EA3EC18F0C7ECE4
:1022300015F0E806D8A411D00001F951FA11FB11EC
:10224000FC11D8A40AD0010EB46F000EB56F000EB9
:10225000B66F000EB76F77EC19F00001F951FA1163
:10226000FB11FC11D8A418D0B451B511B611B71197
:10227000D8A412D0899A000EB86F000EB96F000E64
:10228000BA6F000EBB6F010E3CEC19F0480E036EE6
:10229000210E046EA3EC18F00001B405B511B611BF
:1022A000B711D8A45CD0000E3CEC19F0750E036E8B
:1022B000210E046EA3EC18F02CEC18F01BC02DF0CE
:1022C0001CC02EF01DC02FF01EC030F02DC00DF030
:1022D0002EC00EF02FC00FF030C010F00A0E116E9D
:1022E000000E126E000E136E000E146E67EC16F0E8
:1022F0000DC0ACF00EC0ADF00FC0AEF010C0AFF02E
:102300002CEC18F01BC01FF01CC020F01DC021F0E9
:102310001EC022F00A0E236E000E246E000E256EE3
:10232000000E266ED6EC17F01FC0A8F020C0A9F052
:1023300021C0AAF022C0ABF0400E3CEC19F0000125
:10234000AC51300F5AEC19F00001A851300F5AEC83
:1023500019F0F80E036E210E046EA3EC18F034BED3
:102360001BD034503310321004E1050E315CD8A07C
:1023700013D034BE08D03450331032100DE10A0EA1
:10238000315CD8B009D0010E0001A46F000EA56F1A
:10239000000EA66F000EA76F34BE1BD03450331052
:1023A000321004E10A0E315CD8A013D034BE08D03C
:1023B0003450331032100DE10F0E315CD8B009D01B
:1023C000010E0001A46F000EA56F000EA66F000E97
:1023D000A76F34BE120034503310321004E10F0ED8
:1023E000315CD8A0120034BE08D034503310321003
:1023F00003E1140E315CD8B01200010E0001A46F8D
:10240000000EA56F000EA66F000EA76F120026EC3F
:1024100017F0CDEC16F07FEC17F01200000E3CEC3C
:1024200019F0290E036E210E046EA3EC18F0400E75
:102430003CEC19F0CC0E036E210E046EA3EC18F0E8
:10244000030E0001A46F000EA56F000EA66F000E14
:10245000A76F120005EC14F01200010E0001806F4E
:10246000000E816F000E826F000E836FE151E2114A
:10247000E311E411D8B40AD08984000E3CEC19F0C1
:10248000660E036E210E046EA3EC18F00001E151FC
:10249000E211E311E411D8A41200899477EC19F049
:1024A000060E0001A46F000EA56F000EA66F000EB1
:1024B000A76F1200010E00017C6F000E7D6F000EF1
:1024C0007E6F000E7F6FDD51DE11DF11E011D8B499
:1024D0000AD08984000E3CEC19F0660E036E210EC2
:1024E000046EA3EC18F00001DD51DE11DF11E011E4
:1024F000D8A41200899477EC19F01200A4C029F036
:10250000A5C02AF0A6C02BF0A7C02CF02C50000AC2
:10251000D8A412001BD02A50000AD8A412002950B7
:10252000000AD8B46CD6010AD8B471D7030AD8B45B
:1025300075D7010AD8B48ED7070AD8B48ED7010A46
:10254000D8B4AED7030AD8A41200B4D72B50000ACF
:10255000D8A41200E0D70600F2A446D1F294D20E1D
:10256000D66E480ED76E0001B805B911BA11BB116D
:10257000D8A40ED0F951FA11FB11FC11D8B408D02F
:10258000FF0EF927FF0EFA23FF0EFB23FF0EFC239D
:10259000A005A111A211A311D8A40ED0F551F611D6
:1025A000F711F811D8B408D0FF0EF527FF0EF62367
:1025B000FF0EF723FF0EF8239C059D119E119F111E
:1025C000D8A40ED0F151F211F311F411D8B408D0FF
:1025D000FF0EF127FF0EF223FF0EF323FF0EF4236D
:1025E000980599119A119B11D8A40ED0ED51EE11B6
:1025F000EF11F011D8B408D0FF0EED27FF0EEE2337
:10260000FF0EEF23FF0EF02390059111921193110D
:10261000D8A40ED0E551E611E711E811D8B408D0DE
:10262000FF0EE527FF0EE623FF0EE723FF0EE8234C
:10263000880589118A118B11D8A40ED052505310DD
:1026400054105510D8B408D0FF0E5226FF0E532256
:10265000FF0E5422FF0E55228C058D118E118F1105
:10266000D8A40ED0E951EA11EB11EC11D8B408D07E
:10267000FF0EE927FF0EEA23FF0EEB23FF0EEC23EC
:102680008005811182118311D8A40ED0E151E2118D
:10269000E311E411D8B408D0FF0EE127FF0EE223C6
:1026A000FF0EE323FF0EE423680569116A116B1125
:1026B000D8A40ED0C951CA11CB11CC11D8B408D0AE
:1026C000FF0EC927FF0ECA23FF0ECB23FF0ECC231C
:1026D0006405651166116711D8A40ED0C551C611E5
:1026E000C711C811D8B408D0FF0EC527FF0EC623E6
:1026F000FF0EC723FF0EC82360056111621163112D
:10270000D8A40ED0C151C211C311C411D8B408D07D
:10271000FF0EC127FF0EC223FF0EC323FF0EC423EB
:102720007C057D117E117F11D8A40ED0DD51DE1104
:10273000DF11E011D8B408D0FF0EDD27FF0EDE2335
:10274000FF0EDF23FF0EE023780579117A117B114C
:10275000D8A40ED0D951DA11DB11DC11D8B408D0CD
:10276000FF0ED927FF0EDA23FF0EDB23FF0EDC233B
:102770007405751176117711D8A40ED0D551D611E4
:10278000D711D811D8B408D0FF0ED527FF0ED62305
:10279000FF0ED723FF0ED82370057111721173112C
:1027A000D8A40ED0D151D211D311D411D8B408D09D
:1027B000FF0ED127FF0ED223FF0ED323FF0ED4230B
:1027C0006C056D116E116F11D8A40ED0CD51CE11C4
:1027D000CF11D011D8B408D0FF0ECD27FF0ECE23D5
:1027E000FF0ECF23FF0ED0239EA00DD09E901B0E78
:1027F000CE6ED10ECF6E15EC1AF0F8EC19F0F2B0E7
:102800000FEC1AF0F2905F9211000001E551E61111
:10281000E711E811D8B4CAD0010E906F000E916F85
:10282000000E926F000E936F9ED0525053105410B2
:102830005510D8B41BD0010E886F000E896F000EA2
:102840008A6F000E8B6F8C80010E3CEC19F0830EAA
:10285000036E210E046EA3EC18F0410E3CEC19F04F
:10286000AB0E036E210E046EA3EC18F05250531001
:1028700054105510D8A49AD0000E0001886F000E95
:10288000896F000E8A6F000E8B6F77EC19F0010EC6
:1028900012D05250531054105510D8A487D08C9099
:1028A00077EC19F0050E526E000E536E000E546E4A
:1028B000000E556E020E00014ED0E951EA11EB11E7
:1028C000EC11D8B41BD0010E8C6F000E8D6F000E72
:1028D0008E6F000E8F6F8C82010E3CEC19F0B60EDD
:1028E000036E210E046EA3EC18F0410E3CEC19F0BF
:1028F000AB0E036E210E046EA3EC18F00001E9513B
:10290000EA11EB11EC11D8A451D0000E8C6F000E1F
:102910008D6F000E8E6F000E8F6F030E846F000E92
:10292000856F000E866F000E876F77EC19F03ED032
:10293000E951EA11EB11EC11D8A438D08C9277EC64
:1029400019F0050E0001E96F000EEA6F000EEB6F43
:10295000000EEC6F000E846F000E856F000E866F08
:10296000000E876F23D084C009F085C00AF086C0AE
:102970000BF087C00CF00C50000AD8B413D016D05E
:102980000A50000AD8A412D00950000AD8B44DD772
:10299000010AD8B47ED7030AD8B48FD7010AD8B4B5
:1029A000C7D704D00B50000AD8B4EAD70001E551CC
:1029B000E611E711E811D8A41200000E906F000E86
:1029C000916F000E926F000E936F8C908C92010E9F
:1029D0003CEC19F09E0E036E210E046EA3EC18F071
:1029E000420E3CEC19F0C10E036E210E046EA3ECF6
:1029F00018F0040E0001A46F000EA56F000EA66F64
:102A0000000EA76F12000F0E951696929690969450
:102A1000000E0001FF6F1E0EFE6F000E036E000E13
:102A2000046E000E056E000E066E010E0326000EEB
:102A3000042205220622065008E1A00E035C860E41
:102A40000458010E0558D8A0F0D7020E01EC1AF078
:102A5000000E0001FF6F010EFE6F000E076E000EEC
:102A6000086E000E096E000E0A6E010E0726000E9B
:102A7000082209220A220A5008E1A00E075C860EED
:102A80000858010E0958D8A0F0D7280E01EC1AF00A
:102A9000000E0001FF6F010EFE6F000E0B6E000EA8
:102AA0000C6E000E0D6E000E0E6E010E0B26000E4B
:102AB0000C220D220E220E5008E1A00E0B5C860E99
:102AC0000C58010E0D58D8A0F0D70C0E01EC1AF0DE
:102AD000000E0001FF6F010EFE6F000E0F6E000E64
:102AE000106E000E116E000E126E010E0F26000EFB
:102AF000102211221222125008E1A00E0F5C860E45
:102B00001058010E1158D8A0F0D7010E01EC1AF0A0
:102B1000000E0001FF6F010EFE6F000E136E000E1F
:102B2000146E000E156E000E166E010E1326000EAA
:102B3000142215221622165008E1A00E135C860EF0
:102B40001458010E1558D8A0F0D7060E01EC1AF053
:102B5000000E0001FF6F010EFE6F000E176E000EDB
:102B6000186E000E196E000E1A6E010E1726000E5A
:102B7000182219221A221A5009E1A00E175C860E9B
:102B80001858010E1958D8B01200EFD71200036878
:102B90008ED03B50D8B499D0000E3B6E5768566823
:102BA00003681E0E3A6E010E19D03A50D8A48DD08B
:102BB000020E14D081B802D0000E0BD081BA02D020
:102BC000010E07D081BC02D0020E03D081BE02D01C
:102BD000030E576E5728D8A403D0000E396E75D057
:102BE000938000F000F000F000F000F000F000F042
:102BF00000F000F000F081B881AA05D081BC81AE60
:102C000002D0000E25D0938200F000F000F000F01A
:102C100000F000F000F000F000F000F081B881AAB0
:102C200005D081BC81AE02D0010E12D0938400F099
:102C300000F000F000F000F000F000F000F000F014
:102C400000F081B881AA05D081BC81AE02D0020E0D
:102C5000566E9390939293945628D8B4BED7320E62
:102C60003A6E030E396E5750030D010E016E210EA0
:102C7000026EF3500126F450022256500126000E37
:102C8000022201C0F6FF02C0F7FF0800F5CF03F0F3
:102C90001CD081B881AA19D081BC81AE16D03A501F
:102CA000D8B49BD712D057685668036896D7395066
:102CB000000AD8B46ED7010AD8B477D7030AD8B4BB
:102CC00079D7010AD8B4E5D7EED703501200000E29
:102CD000166E14AE0AD0141E131E121E116C000EB6
:102CE000122213221422010E166E10AE0AD0101EEC
:102CF0000F1E0E1E0D6C000E0E220F221022010E52
:102D0000161A000E176E000E186E000E196E000EC9
:102D10001A6E1150121013101410D8B42AD0010ECC
:102D2000156E06D0D8901136123613361436152A81
:102D300014AEF8D7D8901736183619361A361150FF
:102D40000D5C12500E5813500F5814501058D8A044
:102D500009D011500D5E12500E5A13500F5A1450D4
:102D6000105A1780D8901432133212321132152EA5
:102D7000E1D71650D8B408D01A1E191E181E176CA9
:102D8000000E182219221A2217C00DF018C00EF0DA
:102D900019C00FF01AC010F0120034BE3DD03450EC
:102DA0003310321004E10A0E315CD8A035D034BEA5
:102DB00008D03450331032102FE10F0E315CD8B0F0
:102DC0002BD000019C519D119E119F11D8A424D09D
:102DD000C7EC15F0050AD8A41FD077EC19F0010E46
:102DE00000019C6F000E9D6F000E9E6F000E9F6F86
:102DF0008B808B82010E3CEC19F0390E036E210E94
:102E0000046EA3EC18F0400E3CEC19F0D60E036EE5
:102E1000210E046EA3EC18F00001F151F211F31130
:102E2000F411D8A412008B908B92000E9C6F000EB0
:102E30009D6F000E9E6F000E9F6F020EA46F000E1E
:102E4000A56F000EA66F000EA76F120034BE3DD016
:102E500034503310321004E1050E315CD8A035D067
:102E600034BE08D03450331032102FE10A0E315CDA
:102E7000D8B02BD00001A051A111A211A311D8A448
:102E800024D0C7EC15F0050AD8A41FD077EC19F0B0
:102E9000010E0001A06F000EA16F000EA26F000EC8
:102EA000A36F8B808B82010E3CEC19F0390E036E00
:102EB000210E046EA3EC18F0400E3CEC19F0D60E77
:102EC000036E210E046EA3EC18F00001F551F6110B
:102ED000F711F811D8A412008B908B92000EA06FFE
:102EE000000EA16F000EA26F000EA36F020EA46F62
:102EF000000EA56F000EA66F000EA76F120034BE65
:102F00003BD034503310321004E10F0E315CD8A0A6
:102F100033D034BE08D03450331032102DE1140EAB
:102F2000315CD8B029D00001985199119A119B11A8
:102F3000D8A422D0C7EC15F0050AD8A41DD0010EE4
:102F40000001986F000E996F000E9A6F000E9B6F34
:102F50008B808B82010E3CEC19F0390E036E210E32
:102F6000046EA3EC18F0400E3CEC19F0D60E036E84
:102F7000210E046EA3EC18F00001ED51EE11EF11DB
:102F8000F011D8A412008B908B92000E986F000E57
:102F9000996F000E9A6F000E9B6F020EA46F000EC9
:102FA000A56F000EA66F000EA76F1200000E286E10
:102FB00022AE0AD0221E211E201E1F6C000E2022CF
:102FC00021222222010E286E26AE08D0261E251EA2
:102FD000241E236C000E2422252226222350241096
:102FE00025102610D8B424D0010E276E06D0D89014
:102FF0002336243625362636272A26AEF8D7235000
:103000001F5C245020582550215826502258D8A003
:1030100008D023501F5E2450205A2550215A265094
:10302000225AD8902632253224322332272EE7D74F
:103030002850D8B408D0221E211E201E1F6C000E5E
:103040002022212222221FC01FF020C020F021C0F8
:1030500021F022C022F01200FAEC18F001C0B0F00A
:1030600002C0B1F00001B26BB36BB0C001F0B1C0EF
:1030700002F0B2C003F0B3C004F0320E056E000ED1
:10308000066E000E076E000E086ECFEC18F001C041
:103090000DF002C00EF003C00FF004C010F0FF0EE0
:1030A000116E030E126E000E136E000E146E67EC9E
:1030B00016F00DC031F00EC032F00FC033F010C06A
:1030C00034F031C01BF032C01CF033C01DF034C0EE
:1030D0001EF012003A0EF66E320EF76E000EF86E0B
:1030E00000EEC1F010EE3DF00900F5CFEEFFE55027
:1030F000E150FAE1100EF66E340EF76E000EF86E27
:1031000000EE52F010EE0DF00900F5CFEEFFE550A5
:10311000E150FAE101EE00F0080EEE6AE806FDE18A
:1031200000EE60F0610EEE6AE806FDE100EE31F0BF
:10313000210EEE6AE806FDE15F905F92000EF86EE8
:10314000000193EF19F021D003C0F6FF04C0F7FF90
:103150000800F55004EC10F0000E056E000E066E2F
:10316000000E076E000E086E010E0526000E0622E8
:10317000072208220850071006E1E80E055C030E3E
:103180000658D8A0F1D7034A042A03C0F6FF04C0AA
:10319000F7FF0800F5500009D8B41200D5D7000E8B
:1031A000096E000E0A6E000E0B6E000E0C6E01A072
:1031B00008D00550092606500A2207500B22085055
:1031C0000C22D8900536063607360836D8900432D9
:1031D0000332023201320150021003100410D8A44D
:1031E000E6D709C001F00AC002F00BC003F00CC022
:1031F00004F0120080CF03F092CF04F092800E0E04
:10320000C16EAD0EC06EC280C282C2B2FED7C29085
:103210000F0EC16E03C089FF04C092FFC4CF05F03A
:10322000066A0550066E056AC3500526000E062282
:1032300005C001F006C002F01200140000000A00F0
:1032400000000500000003000000140000000A0058
:103250000000050000000A0000000A0000000F0046
:10326000000005000000140000000A000000050036
:073270000000070000002030
:10327800036E038E035001EC1AF0000E046E000E6C
:10328800056E000E066E000E076E010E0426000E77
:103298000522062207220750061007E1100E045CDB
:1032A800270E0558D8B01200F0D71200036E03504D
:1032B80004EC10F0000E046E000E056E000E066E93
:1032C800000E076E010E0426000E052206220722B4
:1032D8000750061007E1E80E045C030E0558D8B045
:1032E8001200F0D71200010E01EC1AF0000E036E66
:1032F800000E046E000E056E000E066E010E03260B
:10330800000E0422052206220650051007E1E80EE9
:10331800035C030E0458D8B01200F0D71200AAECD0
:1033280019F0959295909490949294949294929A7C
:10333800E0EC19F0D58EC0EC19F0CD80F28EEDECF2
:1033480019F003EC15F0FEEC10F0FDD7000E896EB5
:10335800000E8A6E000E8B6E000E8C6E000E8D6E47
:103368009268936894680C0E956E000E966E070E20
:10337800B46E0F0EC16E1200CD90CD92CD84CD9655
:10338800CF0ECD16CD9ECD9C1B0ECE6ED10ECF6E20
:103398009E909D80F28C1200016E0F0E8C16848414
:1033A8000150F00B8C1284940F0E8C168484013813
:1033B800F00B8C1284941200D59ED59CD59AD59684
:1033C800D580D582D584D20ED66E480ED76EF28AB5
:1033D8001200000E8A6E000E816EF00E936EF19E42
:1033E800F180F290F28612000001FE51FF11D8B46C
:1033F8001200FE07D8A0FF071200026E8492849084
:103408000250D0EC19F0120005000000FFFF040A7A
:05341800FF0101E803C3
:10341E00815000F0010E3B6E00F012003A50D8B40D
:06342E0012003A06120034
:020000040020DA
:08000000FFFFFFFFFFFFFFFF00
:020000040030CA
:0E000000240E3F1EFF8181FF0FC00FE00F4056
:00000001FF
